S00C000052544F532E73726563D0
S11300000C942A000C9447000C9447000C9447006D
S11300100C9447000C9447000C9447000C94F5038F
S11300200C9447000C9447000C9447000C94470030
S11300300C9447000C9411020C94E8010C94BF0139
S11300400C94FA000C9447000C9447000C9447005D
S11300500C94470011241FBECFE5D8E0DEBFCDBF0E
S113006010E0A0E6B0E0EAE5FFE002C005900D92E2
S1130070AE36B107D9F726E0AEE6B0E001C01D9276
S1130080A23BB207E1F70E94F5000C94AB070C9475
S11300900000CF93DF931F92CDB7DEB71982CE0154
S11300A001960E94840080E00E94B90080E090E004
S11300B00E945907F3CF80E00E94D90088EE93E0B4
S11300C00E94DF06F8CFEF92FF920F93E12CF12C00
S11300D003E021E030E044E650E060E670E08BE5C8
S11300E090E00E94930401E021E030E044E650E017
S11300F064E670E089E490E00E9493040E9498050D
S11301000F91FF90EF900895CF93DF9300D01F924B
S1130110CDB7DEB7FC018081813069F028F08230F0
S113012089F08330B1F01BC081E0898380E18A8348
S11301308FEF8B8314C081E0898380E28A838FEF01
S11301408B830DC081E0898380E48A838FEF8B8366
S113015006C081E0898380E88A838FEF8B83CE0198
S113016001960E9423010F900F900F90DF91CF9181
S11301700895813061F028F0823079F0833099F06D
S113018008954FEF60E181E00E94630108954FEF0D
S113019060E281E00E94630108954FEF60E481E032
S11301A00E94630108954FEF60E881E00E946301BB
S11301B00895813059F028F0823069F0833081F05D
S11301C0089560E181E00E949101089560E281E078
S11301D00E949101089560E481E00E9491010895D4
S11301E060E881E00E94910108950E94630080E02C
S11301F090E008951F920F920FB60F9211242F933F
S11302003F934F935F936F937F938F939F93AF939A
S1130210BF93EF93FF93E0916E00F0916F003097DE
S113022009F00995FF91EF91BF91AF919F918F9143
S11302307F916F915F914F913F912F910F900FBEDE
S11302400F901F901895FC01892BC9F18081813092
S113025091F028F08230D9F0833029F132C0218125
S11302609AB38281322F3823822F80958923832B5E
S11302708ABB80E00895218197B38281322F38238D
S1130280822F80958923832B87BB80E00895218169
S113029094B38281322F3823822F80958923832B34
S11302A084BB80E00895218191B38281322F382369
S11302B0822F80958923832B81BB80E0089581E080
S11302C0089581E00895813079F028F08230A9F012
S11302D08330E1F024C08BB3962F90958923462375
S11302E0482B4BBB80E0089588B3962F90958923C3
S11302F04623482B48BB80E0089585B3962F9095FC
S113030089234623482B45BB80E0089582B3962F6A
S1130310909589234623482B42BB80E0089581E0D1
S11303200895813079F028F08230A9F08330E1F02B
S113033024C08BB39BB380958927682369276BBB43
S113034080E0089588B398B3809589276823692746
S113035068BB80E0089585B395B3809589276823A9
S1130360692765BB80E0089582B392B3809589279D
S11303706823692762BB80E0089581E008951F9295
S11303800F920FB60F9211242F933F934F935F93C5
S11303906F937F938F939F93AF93BF93EF93FF9349
S11303A0E0917400F0917500309709F00995FF9180
S11303B0EF91BF91AF919F918F917F916F915F91D9
S11303C04F913F912F910F900FBE0F901F90189552
S11303D01F920F920FB60F9211242F933F934F93B6
S11303E05F936F937F938F939F93AF93BF93EF9399
S11303F0FF93E0917000F0917100309709F0099536
S1130400FF91EF91BF91AF919F918F917F916F91E8
S11304105F914F913F912F910F900FBE0F901F90BE
S113042018951F920F920FB60F9211242F933F939A
S11304304F935F936F937F938F939F93AF93BF93E8
S1130440EF93FF93E0917200F0917300309709F0FD
S11304500995FF91EF91BF91AF919F918F917F91FA
S11304606F915F914F913F912F910F900FBE0F901D
S11304701F901895CF93DF93EC010E94C2058091E1
S1130480760090917700892B31F48BE790E090937C
S11304907700809376002091780030917900C9012B
S11304A08C0F9D1F8B3D45E0940770F42817390786
S11304B070F4C0917600D0917700C20FD31F90934F
S11304C079008093780005C0C0E0D0E002C0C0E0AD
S11304D0D0E00E946806CE01DF91CF91089508957F
S11304E0FC010396928381832FEF3FEF34832383B0
S11304F0968385839087878310820895FC011186F3
S113050010860895CF93DF939C01FB01DC011196C3
S1130510CD91DC911297D383C2838C819D81958385
S113052084838C819D81DC0113967C936E93129756
S11305307D836C8331872087F90180818F5F80837D
S1130540DF91CF910895CF93DF93EB0148815981D7
S11305504F3F2FEF520721F4FC01A781B0850DC056
S1130560DC01139601C0DF011296ED91FC91139703
S11305702081318142175307B0F71296ED91FC9117
S11305801397FB83EA83D583C483BD83AC8313961B
S1130590DC93CE93129799878887FC0120812F5F83
S11305A02083DF91CF910895CF93DF93FC01A08541
S11305B0B185C281D381848195819D838C83C481DB
S11305C0D581828193819B838A8311968D919C919D
S11305D01297E817F90731F48481958112969C9358
S11305E08E931197118610868C9181508C938C91E7
S11305F0DF91CF91089531E1FC013083319722E2FC
S113060020833197A3E3A08331976083319770836C
S113061031971082319760E8608331971082319767
S113062062E06083319763E06083319764E06083C4
S1130630319765E06083319766E06083319767E0C6
S11306406083319768E06083319769E06083319714
S113065060E1608331973083319732E130833197A1
S113066033E13083319734E13083319735E130839E
S1130670319736E13083319737E13083319738E170
S11306803083319739E13083319730E230833197C9
S113069031E2308331972083319723E220833197ED
S11306A0408331975083319726E22083319727E2A4
S11306B02083319728E22083319729E220833197E0
S11306C020E32083319721E32083869708951BBC80
S11306D089EF8ABD8BE08EBD89B7806189BFA09107
S11306E0B006B091B106CD91CDBFDD91DEBFFF91D3
S11306F0EF91DF91CF91BF91AF919F918F917F91B6
S11307006F915F914F913F912F911F910F91FF90A6
S1130710EF90DF90CF90BF90AF909F908F907F909D
S11307206F905F904F903F902F901F900F900FBE4F
S11307300F90089581E008950F920FB6F8940F92E8
S11307401F9211242F923F924F925F926F927F9249
S11307508F929F92AF92BF92CF92DF92EF92FF92CD
S11307600F931F932F933F934F935F936F937F93B5
S11307708F939F93AF93BF93CF93DF93EF93FF93A5
S1130780A091B006B091B1060DB60D920EB60D92C1
S11307900E94F306A091B006B091B106CD91CDBFF1
S11307A0DD91DEBFFF91EF91DF91CF91BF91AF91CA
S11307B09F918F917F916F915F914F913F912F9175
S11307C01F910F91FF90EF90DF90CF90BF90AF906B
S11307D09F908F907F906F905F904F903F902F905D
S11307E01F900F900FBE0F9008951F920F920FB697
S11307F00F9211242F933F934F935F936F937F93A3
S11308008F939F93AF93BF93EF93FF930E94C80579
S1130810FF91EF91BF91AF919F918F917F916F91D4
S11308205F914F913F912F910F900FBE0F901F90AA
S11308301895E0917806F09179068081811107C0BE
S11308408FEF9FEF90935A06809359060895E09195
S11308507806F09179060580F681E02D0680F7810F
S1130860E02D8281938190935A06809359060895CE
S11308700E949C03FDCFFF920F931F93CF93DF93AE
S1130880EC01F62E00916106109162068091B0068B
S11308909091B10602960E94D402CF3F8FEFD80701
S11308A069F4FF2059F06091B0067091B1066E5F53
S11308B07F4F84E696E00E9482022FC0C00FD11FB2
S11308C0E091B006F091B106D383C283C017D1077B
S11308D068F46091B0067091B106809176069091AB
S11308E077066E5F7F4F0E94A30217C06091B00627
S11308F07091B10680917806909179066E5F7F4F72
S11309000E94A3028091590690915A06C817D907EC
S113091020F4D0935A06C0935906DF91CF911F91CA
S11309200F91FF9008954F925F926F927F928F92F2
S11309309F92AF92BF92CF92DF92EF92FF920F936A
S1130940CF93DF934C016B015A012901CA010E9424
S11309503A023C01892B09F4DAC086E290E00E9455
S11309603A02EC01892B59F0788E6F8A81E0A81A3B
S1130970B108A60CB71CC114D10429F420C0C301CA
S11309800E946F02C4C0D6018C91898F8C918823F8
S1130990A1F0AE01465E5F4FF6013196B8E0CB0E92
S11309A0D11CCF012191DA012D93AD01DC018C9191
S11309B0882319F0EC15FD05A1F718A201C0198EC2
S11309C0043008F003E00E8B6E01B2E0CB0ED11CB4
S11309D0C6010E947E02CE010C960E947E02D98737
S11309E0C88784E090E0801B91099D878C87DB8B0E
S11309F0CA8B19A21AA21BA21CA21DA2A201B40195
S1130A00C5010E94FB0299838883E114F10419F063
S1130A10F701D183C0830FB6F8940F9280916306D7
S1130A208F5F809363068091B0069091B106892B05
S1130A30A9F5D093B106C093B006809163068130C6
S1130A40E9F58CE896E00E94700285E996E00E9440
S1130A5070028EE996E00E94700287EA96E00E9496
S1130A60700283E896E00E9470028AE796E00E9492
S1130A7070028DE696E00E94700284E696E00E9481
S1130A80700283E896E090937906809378068AE76B
S1130A9096E0909377068093760610C080915F0667
S1130AA081110CC0E091B006F091B10696898E894F
S1130AB0891720F0D093B106C093B00680915B06ED
S1130AC08F5F80935B068E8990916006981710F46F
S1130AD08093600690E09C01220F331F220F331F86
S1130AE0220F331F820F931FB6018457994F0E9420
S1130AF082020F900FBE80915F06882331F08091AF
S1130B00B0069091B10681E003C081E001C08FEF8F
S1130B10DF91CF910F91FF90EF90DF90CF90BF9036
S1130B20AF909F908F907F906F905F904F900895BB
S1130B30EF92FF920F930F2EF7E5EF2EF6E0FF2EC4
S1130B40F02D00E020E030E045E550E069E670E09B
S1130B5088E394E00E949304813081F4F8948FEF49
S1130B609FEF90935A068093590681E080935F0625
S1130B7010926206109261060E9467030F91FF9023
S1130B80EF900895809156068F5F809356060895DE
S1130B90EF92FF920F931F93CF93DF9380915606AA
S1130BA0811189C0E0906106F09062068FEFE81A27
S1130BB0F80AF0926206E0926106E114F104B9F4D5
S1130BC08091780690917906209176063091770687
S1130BD0309379062093780690937706809376066F
S1130BE080915C068F5F80935C060E94190480915B
S1130BF0590690915A06E816F90608F461C0E09186
S1130C007806F09179068081882379F0E09178065E
S1130C10F09179060580F681E02DC681D7818A811D
S1130C209B81E816F906D8F415C08FEF9FEF9093D7
S1130C305A068093590644C0E0917806F0917906EB
S1130C400580F681E02DC681D7818A819B81E816D3
S1130C50F90628F490935A068093590631C08E0100
S1130C600E5F1F4FC8010E94D4028C899D89892B75
S1130C7021F0CE010C960E94D4028E8990916006D8
S1130C80981710F48093600690E09C01220F331FA4
S1130C90220F331F220F331F820F931FB801845773
S1130CA0994F0E948202E0917806F0917906808142
S1130CB08111C2CFBACF80915E068F5F80935E06AA
S1130CC080E0DF91CF911F910F91FF90EF900895F5
S1130CD0DF92EF92FF920F931F93CF93DF930FB6A0
S1130CE0F8940F9280915606815080935606809115
S1130CF05606811159C080916306811133C054C0D6
S1130D00D7011596ED91FC911697C681D781CE0136
S1130D100C960E94D4028E010E5F1F4FC8010E94E0
S1130D20D4028E8990916006981710F4809360061F
S1130D3090E09C01220F331F220F331F220F331F19
S1130D40820F931FB8018457994F0E948202E09149
S1130D50B006F091B1069E898689981768F0D09202
S1130D605D060AC0C0E0D0E00F2EFDE6EF2EF6E0EF
S1130D70FF2EF02DDD24D394F70180818111C0CFA3
S1130D80CD2B11F00E941904C0915E06CC2351F0C2
S1130D90D1E00E94C8058111D0935D06C150C9F706
S1130DA010925E0680915D060F900FBE80E0DF9189
S1130DB0CF911F910F91FF90EF90DF900895CF9303
S1130DC0DF93EC01892B51F00E94C20560E0CE0153
S1130DD00E943B040E946806811102C00E949C0389
S1130DE0DF91CF91089580915606882321F081E008
S1130DF080935D06089510925D0620916006822F0F
S1130E0090E0FC01EE0FFF1FEE0FFF1FEE0FFF1F20
S1130E10E80FF91FE457F94F3081311111C0215007
S1130E20822F90E0FC01EE0FFF1FEE0FFF1FEE0F6D
S1130E30FF1FE80FF91FE457F94F3081332379F38B
S1130E40AC01440F551F440F551F440F551F480F45
S1130E50591FDA01A457B94F1196ED91FC911297DD
S1130E600280F381E02D1296FC93EE931197415783
S1130E70594FE417F50729F442815381FD01528348
S1130E804183FC01EE0FFF1FEE0FFF1FEE0FFF1F4C
S1130E908E0F9F1FFC01E457F94F0180F281E02D72
S1130EA0868197819093B1068093B0062093600663
S1130EB008950F931F93CF93DF93EC010FB6F8942B
S1130EC00F92892B21F4C091B006D091B1068E0106
S1130ED00E5F1F4FC8010E94D4028C899D89892B03
S1130EE021F0CE010C960E94D402B80184E696E06B
S1130EF00E9482028DA1813009F41DA20F900FBEC1
S1130F0080915F06882339F00FB6F8940F920E94FF
S1130F1019040F900FBE8091B0069091B106C817C6
S1130F20D907A1F480915F06882319F00E949C03DD
S1130F300DC09091640680916306981305C01092C9
S1130F40B1061092B00602C00E94F306DF91CF9161
S10D0F501F910F910895F894FFCF4C
S1110F5A4C454400494E49540049444C45005E
S9030000FC
